{
  "transactions": [
    {
      "hash": "0xcc3e448360e09daabb67a8dbc8cbc857ca4988f4c6921012fac4307a00a77f10",
      "transactionType": "CALL",
      "contractName": null,
      "contractAddress": "0x2b0cddac29ccd8529ab849b8dc9a826f67d55919",
      "function": "withdrawCollateral(uint256)",
      "arguments": [
        "115792089237316195423570985008687907853269984665640564039457584007913129639935"
      ],
      "transaction": {
        "from": "0x16a1e17144f10091d6da0eca7f336ccc76462e03",
        "to": "0x2b0cddac29ccd8529ab849b8dc9a826f67d55919",
        "gas": "0x4442c",
        "value": "0x0",
        "input": "0x6112fe2effffffffffffffffffffffffffffffffffffffffffffffffffffffffffffffff",
        "nonce": "0x18",
        "chainId": "0x3e7"
      },
      "additionalContracts": [],
      "isFixedGasLimit": false
    },
    {
      "hash": "0xaf9494f4c86cb7b0ac8f4c595e6b04d5b48ac6e1a2ad997cf380747947c55862",
      "transactionType": "CALL",
      "contractName": null,
      "contractAddress": "0x2b0cddac29ccd8529ab849b8dc9a826f67d55919",
      "function": "rescueTokens(address,uint256)",
      "arguments": [
        "0xb88339CB7199b77E23DB6E890353E22632Ba630f",
        "110900544"
      ],
      "transaction": {
        "from": "0x16a1e17144f10091d6da0eca7f336ccc76462e03",
        "to": "0x2b0cddac29ccd8529ab849b8dc9a826f67d55919",
        "gas": "0x18304",
        "value": "0x0",
        "input": "0x57376198000000000000000000000000b88339cb7199b77e23db6e890353e22632ba630f00000000000000000000000000000000000000000000000000000000069c3540",
        "nonce": "0x19",
        "chainId": "0x3e7"
      },
      "additionalContracts": [],
      "isFixedGasLimit": false
    }
  ],
  "receipts": [
    {
      "status": "0x1",
      "cumulativeGasUsed": "0x8e477",
      "logs": [
        {
          "address": "0x00a89d7a5a02160f20150ebea7a2b5e4879a1a8b",
          "topics": [
            "0x804c9b842b2748a22bb64b345453a3de7ca54a6ca45ce00d415894979e22897a",
            "0x000000000000000000000000b88339cb7199b77e23db6e890353e22632ba630f"
          ],
          "data": "0x0000000000000000000000000000000000000000002aecb17f396b1881b977c7000000000000000000000000000000000000000000000000000000000000000000000000000000000000000000000000000000000041600cf76295fd83ec62d900000000000000000000000000000000000000000346a67153e2253df01812660000000000000000000000000000000000000000034d312767fe1b28468e82e4",
          "blockHash": "0xab4956bb56ec692a8407707cf62a01ff916c6f832556d292ee611fe325919e17",
          "blockNumber": "0x133e594",
          "blockTimestamp": "0x69260b68",
          "transactionHash": "0xcc3e448360e09daabb67a8dbc8cbc857ca4988f4c6921012fac4307a00a77f10",
          "transactionIndex": "0x1",
          "logIndex": "0xe",
          "removed": false
        },
        {
          "address": "0x00a89d7a5a02160f20150ebea7a2b5e4879a1a8b",
          "topics": [
            "0x44c58d81365b66dd4b1a7f36c25aa97b8c71c361ee4937adc1a00000227db5dd",
            "0x000000000000000000000000b88339cb7199b77e23db6e890353e22632ba630f",
            "0x0000000000000000000000002b0cddac29ccd8529ab849b8dc9a826f67d55919"
          ],
          "data": "0x",
          "blockHash": "0xab4956bb56ec692a8407707cf62a01ff916c6f832556d292ee611fe325919e17",
          "blockNumber": "0x133e594",
          "blockTimestamp": "0x69260b68",
          "transactionHash": "0xcc3e448360e09daabb67a8dbc8cbc857ca4988f4c6921012fac4307a00a77f10",
          "transactionIndex": "0x1",
          "logIndex": "0xf",
          "removed": false
        },
        {
          "address": "0x744e4f26ee30213989216e1632d9be3547c4885b",
          "topics": [
            "0xddf252ad1be2c89b69c2b068fc378daa952ba7f163c4a11628f55a4df523b3ef",
            "0x0000000000000000000000002b0cddac29ccd8529ab849b8dc9a826f67d55919",
            "0x0000000000000000000000000000000000000000000000000000000000000000"
          ],
          "data": "0x00000000000000000000000000000000000000000000000000000000069c28ee",
          "blockHash": "0xab4956bb56ec692a8407707cf62a01ff916c6f832556d292ee611fe325919e17",
          "blockNumber": "0x133e594",
          "blockTimestamp": "0x69260b68",
          "transactionHash": "0xcc3e448360e09daabb67a8dbc8cbc857ca4988f4c6921012fac4307a00a77f10",
          "transactionIndex": "0x1",
          "logIndex": "0x10",
          "removed": false
        },
        {
          "address": "0x744e4f26ee30213989216e1632d9be3547c4885b",
          "topics": [
            "0x4cf25bc1d991c17529c25213d3cc0cda295eeaad5f13f361969b12ea48015f90",
            "0x0000000000000000000000002b0cddac29ccd8529ab849b8dc9a826f67d55919",
            "0x0000000000000000000000002b0cddac29ccd8529ab849b8dc9a826f67d55919"
          ],
          "data": "0x00000000000000000000000000000000000000000000000000000000069c28ee0000000000000000000000000000000000000000000000000000000000000c5600000000000000000000000000000000000000000346a67153e2253df0181266",
          "blockHash": "0xab4956bb56ec692a8407707cf62a01ff916c6f832556d292ee611fe325919e17",
          "blockNumber": "0x133e594",
          "blockTimestamp": "0x69260b68",
          "transactionHash": "0xcc3e448360e09daabb67a8dbc8cbc857ca4988f4c6921012fac4307a00a77f10",
          "transactionIndex": "0x1",
          "logIndex": "0x11",
          "removed": false
        },
        {
          "address": "0xb88339cb7199b77e23db6e890353e22632ba630f",
          "topics": [
            "0xddf252ad1be2c89b69c2b068fc378daa952ba7f163c4a11628f55a4df523b3ef",
            "0x000000000000000000000000744e4f26ee30213989216e1632d9be3547c4885b",
            "0x0000000000000000000000002b0cddac29ccd8529ab849b8dc9a826f67d55919"
          ],
          "data": "0x00000000000000000000000000000000000000000000000000000000069c3544",
          "blockHash": "0xab4956bb56ec692a8407707cf62a01ff916c6f832556d292ee611fe325919e17",
          "blockNumber": "0x133e594",
          "blockTimestamp": "0x69260b68",
          "transactionHash": "0xcc3e448360e09daabb67a8dbc8cbc857ca4988f4c6921012fac4307a00a77f10",
          "transactionIndex": "0x1",
          "logIndex": "0x12",
          "removed": false
        },
        {
          "address": "0x00a89d7a5a02160f20150ebea7a2b5e4879a1a8b",
          "topics": [
            "0x3115d1449a7b732c986cba18244e897a450f61e1bb8d589cd2e69e6c8924f9f7",
            "0x000000000000000000000000b88339cb7199b77e23db6e890353e22632ba630f",
            "0x0000000000000000000000002b0cddac29ccd8529ab849b8dc9a826f67d55919",
            "0x0000000000000000000000002b0cddac29ccd8529ab849b8dc9a826f67d55919"
          ],
          "data": "0x00000000000000000000000000000000000000000000000000000000069c3544",
          "blockHash": "0xab4956bb56ec692a8407707cf62a01ff916c6f832556d292ee611fe325919e17",
          "blockNumber": "0x133e594",
          "blockTimestamp": "0x69260b68",
          "transactionHash": "0xcc3e448360e09daabb67a8dbc8cbc857ca4988f4c6921012fac4307a00a77f10",
          "transactionIndex": "0x1",
          "logIndex": "0x13",
          "removed": false
        },
        {
          "address": "0x2b0cddac29ccd8529ab849b8dc9a826f67d55919",
          "topics": [
            "0xc36696c86a9d1d0e60d9160cc0bdc4ac52ff55c21daff12fa7ab6c6331450a4b"
          ],
          "data": "0xffffffffffffffffffffffffffffffffffffffffffffffffffffffffffffffff",
          "blockHash": "0xab4956bb56ec692a8407707cf62a01ff916c6f832556d292ee611fe325919e17",
          "blockNumber": "0x133e594",
          "blockTimestamp": "0x69260b68",
          "transactionHash": "0xcc3e448360e09daabb67a8dbc8cbc857ca4988f4c6921012fac4307a00a77f10",
          "transactionIndex": "0x1",
          "logIndex": "0x14",
          "removed": false
        }
      ],
      "logsBloom": "0x100000000000000000000000000000000081000000004000000000000000000000000000000000000000440100000004000300000040000000000000008000000000000001000000800000080000000008000000000000000000000000000000000000000200000000000000000008000000000000000200800020100000000000000020000000100000000001000000000000000800000000000000000000000000000000800000000000000000000000000000000000000004000000000100000000020000000000000020000000000000000000000000000004000100202400000000000000000000a0000000000000000000000000000200000000000014",
      "type": "0x2",
      "transactionHash": "0xcc3e448360e09daabb67a8dbc8cbc857ca4988f4c6921012fac4307a00a77f10",
      "transactionIndex": "0x1",
      "blockHash": "0xab4956bb56ec692a8407707cf62a01ff916c6f832556d292ee611fe325919e17",
      "blockNumber": "0x133e594",
      "gasUsed": "0x316b7",
      "effectiveGasPrice": "0x2c540e34",
      "from": "0x16a1e17144f10091d6da0eca7f336ccc76462e03",
      "to": "0x2b0cddac29ccd8529ab849b8dc9a826f67d55919",
      "contractAddress": null
    },
    {
      "status": "0x1",
      "cumulativeGasUsed": "0x108a1",
      "logs": [
        {
          "address": "0xb88339cb7199b77e23db6e890353e22632ba630f",
          "topics": [
            "0xddf252ad1be2c89b69c2b068fc378daa952ba7f163c4a11628f55a4df523b3ef",
            "0x0000000000000000000000002b0cddac29ccd8529ab849b8dc9a826f67d55919",
            "0x00000000000000000000000016a1e17144f10091d6da0eca7f336ccc76462e03"
          ],
          "data": "0x00000000000000000000000000000000000000000000000000000000069c3540",
          "blockHash": "0x3644f3193f923a579022e5690833b475a156f9a7d8fc76c24e7c97e371a15621",
          "blockNumber": "0x133e595",
          "blockTimestamp": "0x69260b69",
          "transactionHash": "0xaf9494f4c86cb7b0ac8f4c595e6b04d5b48ac6e1a2ad997cf380747947c55862",
          "transactionIndex": "0x0",
          "logIndex": "0x0",
          "removed": false
        }
      ],
      "logsBloom": "0x00000000000000000000000000000000000000000004000000000000000000000000000000020000000004000000000000000000000000000000000000000000000000000100000000000008000000000000000000000000000000000000000000000000000000000000000000000000000000000000000080000010000000000000000000000000000000000000000000000000000000000000000000000000000000000000000000000000000000000000000000000000000000000000000000000002000000000000000000000000000000000000000000000400000000208000000000000000000000000000000000000000000000000000000000000004",
      "type": "0x2",
      "transactionHash": "0xaf9494f4c86cb7b0ac8f4c595e6b04d5b48ac6e1a2ad997cf380747947c55862",
      "transactionIndex": "0x0",
      "blockHash": "0x3644f3193f923a579022e5690833b475a156f9a7d8fc76c24e7c97e371a15621",
      "blockNumber": "0x133e595",
      "gasUsed": "0x108a1",
      "effectiveGasPrice": "0x2c540e34",
      "from": "0x16a1e17144f10091d6da0eca7f336ccc76462e03",
      "to": "0x2b0cddac29ccd8529ab849b8dc9a826f67d55919",
      "contractAddress": null
    }
  ],
  "libraries": [],
  "pending": [],
  "returns": {},
  "timestamp": 1764100970,
  "chain": 999,
  "commit": "7c239e7"
}